{
  "_format": "hh-sol-artifact-1",
  "contractName": "AgricultureTraceability",
  "sourceName": "contracts/AgricultureTraceability.sol",
  "abi": [
    {
      "inputs": [],
      "stateMutability": "nonpayable",
      "type": "constructor"
    },
    {
      "inputs": [],
      "name": "AccessControlBadConfirmation",
      "type": "error"
    },
    {
      "inputs": [
        {
          "internalType": "address",
          "name": "account",
          "type": "address"
        },
        {
          "internalType": "bytes32",
          "name": "neededRole",
          "type": "bytes32"
        }
      ],
      "name": "AccessControlUnauthorizedAccount",
      "type": "error"
    },
    {
      "anonymous": false,
      "inputs": [
        {
          "indexed": false,
          "internalType": "string",
          "name": "productId",
          "type": "string"
        },
        {
          "indexed": false,
          "internalType": "string",
          "name": "batchId",
          "type": "string"
        },
        {
          "indexed": false,
          "internalType": "string",
          "name": "certification",
          "type": "string"
        }
      ],
      "name": "Certified",
      "type": "event"
    },
    {
      "anonymous": false,
      "inputs": [
        {
          "indexed": false,
          "internalType": "string",
          "name": "productId",
          "type": "string"
        },
        {
          "indexed": false,
          "internalType": "string",
          "name": "batchId",
          "type": "string"
        },
        {
          "indexed": false,
          "internalType": "string",
          "name": "location",
          "type": "string"
        },
        {
          "indexed": false,
          "internalType": "uint256",
          "name": "harvestDate",
          "type": "uint256"
        }
      ],
      "name": "Harvested",
      "type": "event"
    },
    {
      "anonymous": false,
      "inputs": [
        {
          "indexed": true,
          "internalType": "bytes32",
          "name": "role",
          "type": "bytes32"
        },
        {
          "indexed": true,
          "internalType": "bytes32",
          "name": "previousAdminRole",
          "type": "bytes32"
        },
        {
          "indexed": true,
          "internalType": "bytes32",
          "name": "newAdminRole",
          "type": "bytes32"
        }
      ],
      "name": "RoleAdminChanged",
      "type": "event"
    },
    {
      "anonymous": false,
      "inputs": [
        {
          "indexed": true,
          "internalType": "bytes32",
          "name": "role",
          "type": "bytes32"
        },
        {
          "indexed": true,
          "internalType": "address",
          "name": "account",
          "type": "address"
        },
        {
          "indexed": true,
          "internalType": "address",
          "name": "sender",
          "type": "address"
        }
      ],
      "name": "RoleGranted",
      "type": "event"
    },
    {
      "anonymous": false,
      "inputs": [
        {
          "indexed": true,
          "internalType": "bytes32",
          "name": "role",
          "type": "bytes32"
        },
        {
          "indexed": true,
          "internalType": "address",
          "name": "account",
          "type": "address"
        },
        {
          "indexed": true,
          "internalType": "address",
          "name": "sender",
          "type": "address"
        }
      ],
      "name": "RoleRevoked",
      "type": "event"
    },
    {
      "anonymous": false,
      "inputs": [
        {
          "indexed": false,
          "internalType": "string",
          "name": "productId",
          "type": "string"
        },
        {
          "indexed": false,
          "internalType": "string",
          "name": "batchId",
          "type": "string"
        },
        {
          "indexed": false,
          "internalType": "string",
          "name": "retailer",
          "type": "string"
        },
        {
          "indexed": false,
          "internalType": "uint256",
          "name": "time",
          "type": "uint256"
        }
      ],
      "name": "Sold",
      "type": "event"
    },
    {
      "anonymous": false,
      "inputs": [
        {
          "indexed": false,
          "internalType": "string",
          "name": "productId",
          "type": "string"
        },
        {
          "indexed": false,
          "internalType": "string",
          "name": "batchId",
          "type": "string"
        },
        {
          "indexed": false,
          "internalType": "string",
          "name": "transporter",
          "type": "string"
        },
        {
          "indexed": false,
          "internalType": "string",
          "name": "location",
          "type": "string"
        },
        {
          "indexed": false,
          "internalType": "string",
          "name": "temperature",
          "type": "string"
        },
        {
          "indexed": false,
          "internalType": "uint256",
          "name": "time",
          "type": "uint256"
        }
      ],
      "name": "Transported",
      "type": "event"
    },
    {
      "inputs": [],
      "name": "ADMIN_ROLE",
      "outputs": [
        {
          "internalType": "bytes32",
          "name": "",
          "type": "bytes32"
        }
      ],
      "stateMutability": "view",
      "type": "function"
    },
    {
      "inputs": [],
      "name": "AUDITOR_ROLE",
      "outputs": [
        {
          "internalType": "bytes32",
          "name": "",
          "type": "bytes32"
        }
      ],
      "stateMutability": "view",
      "type": "function"
    },
    {
      "inputs": [],
      "name": "DEFAULT_ADMIN_ROLE",
      "outputs": [
        {
          "internalType": "bytes32",
          "name": "",
          "type": "bytes32"
        }
      ],
      "stateMutability": "view",
      "type": "function"
    },
    {
      "inputs": [],
      "name": "DISTRIBUTOR_ROLE",
      "outputs": [
        {
          "internalType": "bytes32",
          "name": "",
          "type": "bytes32"
        }
      ],
      "stateMutability": "view",
      "type": "function"
    },
    {
      "inputs": [],
      "name": "FARMER_ROLE",
      "outputs": [
        {
          "internalType": "bytes32",
          "name": "",
          "type": "bytes32"
        }
      ],
      "stateMutability": "view",
      "type": "function"
    },
    {
      "inputs": [],
      "name": "RETAILER_ROLE",
      "outputs": [
        {
          "internalType": "bytes32",
          "name": "",
          "type": "bytes32"
        }
      ],
      "stateMutability": "view",
      "type": "function"
    },
    {
      "inputs": [
        {
          "internalType": "string",
          "name": "_productId",
          "type": "string"
        },
        {
          "internalType": "string",
          "name": "_batchId",
          "type": "string"
        },
        {
          "internalType": "string",
          "name": "_harvestLocation",
          "type": "string"
        },
        {
          "internalType": "uint256",
          "name": "_harvestDate",
          "type": "uint256"
        }
      ],
      "name": "addBatch",
      "outputs": [],
      "stateMutability": "nonpayable",
      "type": "function"
    },
    {
      "inputs": [
        {
          "internalType": "string",
          "name": "_productId",
          "type": "string"
        },
        {
          "internalType": "string",
          "name": "_batchId",
          "type": "string"
        },
        {
          "internalType": "string",
          "name": "_location",
          "type": "string"
        },
        {
          "internalType": "string",
          "name": "_temperature",
          "type": "string"
        }
      ],
      "name": "addTransportRecord",
      "outputs": [],
      "stateMutability": "nonpayable",
      "type": "function"
    },
    {
      "inputs": [
        {
          "internalType": "string",
          "name": "_productId",
          "type": "string"
        },
        {
          "internalType": "string",
          "name": "_batchId",
          "type": "string"
        },
        {
          "internalType": "string",
          "name": "_certification",
          "type": "string"
        }
      ],
      "name": "certifyBatch",
      "outputs": [],
      "stateMutability": "nonpayable",
      "type": "function"
    },
    {
      "inputs": [
        {
          "internalType": "string",
          "name": "_productId",
          "type": "string"
        },
        {
          "internalType": "string",
          "name": "_batchId",
          "type": "string"
        }
      ],
      "name": "getBatchInfo",
      "outputs": [
        {
          "internalType": "string",
          "name": "batchId",
          "type": "string"
        },
        {
          "internalType": "string",
          "name": "status",
          "type": "string"
        },
        {
          "internalType": "string",
          "name": "certification",
          "type": "string"
        },
        {
          "internalType": "string",
          "name": "harvestLocation",
          "type": "string"
        },
        {
          "internalType": "uint256",
          "name": "harvestDate",
          "type": "uint256"
        },
        {
          "components": [
            {
              "internalType": "string",
              "name": "transporter",
              "type": "string"
            },
            {
              "internalType": "string",
              "name": "location",
              "type": "string"
            },
            {
              "internalType": "string",
              "name": "temperature",
              "type": "string"
            },
            {
              "internalType": "uint256",
              "name": "timestamp",
              "type": "uint256"
            }
          ],
          "internalType": "struct AgricultureTraceability.TransportRecord[]",
          "name": "transports",
          "type": "tuple[]"
        }
      ],
      "stateMutability": "view",
      "type": "function"
    },
    {
      "inputs": [
        {
          "internalType": "bytes32",
          "name": "role",
          "type": "bytes32"
        }
      ],
      "name": "getRoleAdmin",
      "outputs": [
        {
          "internalType": "bytes32",
          "name": "",
          "type": "bytes32"
        }
      ],
      "stateMutability": "view",
      "type": "function"
    },
    {
      "inputs": [
        {
          "internalType": "bytes32",
          "name": "role",
          "type": "bytes32"
        },
        {
          "internalType": "address",
          "name": "account",
          "type": "address"
        }
      ],
      "name": "grantRole",
      "outputs": [],
      "stateMutability": "nonpayable",
      "type": "function"
    },
    {
      "inputs": [
        {
          "internalType": "bytes32",
          "name": "role",
          "type": "bytes32"
        },
        {
          "internalType": "address",
          "name": "account",
          "type": "address"
        }
      ],
      "name": "hasRole",
      "outputs": [
        {
          "internalType": "bool",
          "name": "",
          "type": "bool"
        }
      ],
      "stateMutability": "view",
      "type": "function"
    },
    {
      "inputs": [
        {
          "internalType": "string",
          "name": "_productId",
          "type": "string"
        },
        {
          "internalType": "string",
          "name": "_batchId",
          "type": "string"
        }
      ],
      "name": "markAsSold",
      "outputs": [],
      "stateMutability": "nonpayable",
      "type": "function"
    },
    {
      "inputs": [
        {
          "internalType": "string",
          "name": "",
          "type": "string"
        },
        {
          "internalType": "string",
          "name": "",
          "type": "string"
        }
      ],
      "name": "productBatches",
      "outputs": [
        {
          "internalType": "string",
          "name": "batchId",
          "type": "string"
        },
        {
          "internalType": "string",
          "name": "status",
          "type": "string"
        },
        {
          "internalType": "string",
          "name": "certification",
          "type": "string"
        },
        {
          "internalType": "string",
          "name": "harvestLocation",
          "type": "string"
        },
        {
          "internalType": "uint256",
          "name": "harvestDate",
          "type": "uint256"
        },
        {
          "internalType": "bool",
          "name": "isActive",
          "type": "bool"
        }
      ],
      "stateMutability": "view",
      "type": "function"
    },
    {
      "inputs": [
        {
          "internalType": "bytes32",
          "name": "role",
          "type": "bytes32"
        },
        {
          "internalType": "address",
          "name": "callerConfirmation",
          "type": "address"
        }
      ],
      "name": "renounceRole",
      "outputs": [],
      "stateMutability": "nonpayable",
      "type": "function"
    },
    {
      "inputs": [
        {
          "internalType": "bytes32",
          "name": "role",
          "type": "bytes32"
        },
        {
          "internalType": "address",
          "name": "account",
          "type": "address"
        }
      ],
      "name": "revokeRole",
      "outputs": [],
      "stateMutability": "nonpayable",
      "type": "function"
    },
    {
      "inputs": [
        {
          "internalType": "bytes4",
          "name": "interfaceId",
          "type": "bytes4"
        }
      ],
      "name": "supportsInterface",
      "outputs": [
        {
          "internalType": "bool",
          "name": "",
          "type": "bool"
        }
      ],
      "stateMutability": "view",
      "type": "function"
    }
  ],
  "bytecode": "0x608060405234801561001057600080fd5b5061001c60003361004d565b506100477fa49807205ce4d355092ef5a8a18f56e8913cf4a201fbe287825b095693c217753361004d565b506100f9565b6000828152602081815260408083206001600160a01b038516845290915281205460ff166100ef576000838152602081815260408083206001600160a01b03861684529091529020805460ff191660011790556100a73390565b6001600160a01b0316826001600160a01b0316847f2f8788117e7eff1d82e926ec794901d17c78024a50270940304540a733656f0d60405160405180910390a45060016100f3565b5060005b92915050565b611ed5806101086000396000f3fe608060405234801561001057600080fd5b50600436106101365760003560e01c806375b238fc116100b2578063bea986ee11610081578063d72d9f6c11610066578063d72d9f6c14610306578063f0bd87cc14610319578063f39439701461034057600080fd5b8063bea986ee146102ce578063d547741f146102f357600080fd5b806375b238fc1461024357806391d148541461026a578063a217fddf146102a1578063b6c44b4a146102a957600080fd5b80632f2ff15d1161010957806336568abe116100ee57806336568abe146101f65780636885b69d146102095780636e1d616e1461021c57600080fd5b80632f2ff15d146101d05780632f9e83a9146101e357600080fd5b806301ffc9a71461013b5780632115e7bf14610163578063248a9ca3146101985780632757f538146101bb575b600080fd5b61014e6101493660046114b0565b610367565b60405190151581526020015b60405180910390f35b61018a7f2a5f906c256a5d799494fcd066e1f6c077689de1cdb65052a1624de4bace99bf81565b60405190815260200161015a565b61018a6101a63660046114f9565b60009081526020819052604090206001015490565b6101ce6101c936600461155b565b610400565b005b6101ce6101de366004611601565b610558565b6101ce6101f136600461163d565b610583565b6101ce610204366004611601565b6106f0565b6101ce6102173660046116ae565b610741565b61018a7f59a1c48e5837ad7a7f3dcedcbe129bf3249ec4fbf651fd4f5e2600ead39fe2f581565b61018a7fa49807205ce4d355092ef5a8a18f56e8913cf4a201fbe287825b095693c2177581565b61014e610278366004611601565b6000918252602082815260408084206001600160a01b0393909316845291905290205460ff1690565b61018a600081565b6102bc6102b7366004611802565b6108ca565b60405161015a969594939291906118b1565b6102e16102dc36600461163d565b610b4a565b60405161015a96959493929190611919565b6101ce610301366004611601565b61105a565b6101ce610314366004611a22565b61107f565b61018a7ffbd454f36a7e1a388bd6fc3ab10d434aa4578f811acbbcf33afb1c697486313c81565b61018a7f7c6181838a71a779e445600d4c6ecbe16bacf2b3c5bda69c29fada66d1b645d181565b60007fffffffff0000000000000000000000000000000000000000000000000000000082167f7965db0b0000000000000000000000000000000000000000000000000000000014806103fa57507f01ffc9a7000000000000000000000000000000000000000000000000000000007fffffffff000000000000000000000000000000000000000000000000000000008316145b92915050565b7f59a1c48e5837ad7a7f3dcedcbe129bf3249ec4fbf651fd4f5e2600ead39fe2f561042a81611306565b60006001888860405161043e929190611af9565b9081526020016040518091039020868660405161045c929190611af9565b908152604051908190036020019020600681015490915060ff166104b95760405162461bcd60e51b815260206004820152600f60248201526e10985d18da081b9bdd08199bdd5b99608a1b60448201526064015b60405180910390fd5b600281016104c8848683611b91565b5060408051808201909152600981527f43657274696669656400000000000000000000000000000000000000000000006020820152600182019061050c9082611c51565b507f64b0c00a3fb575f6c046c4286ea906ffc68841dcb0dd6c0acace51e60efd122788888888888860405161054696959493929190611d39565b60405180910390a15050505050505050565b60008281526020819052604090206001015461057381611306565b61057d8383611313565b50505050565b7f2a5f906c256a5d799494fcd066e1f6c077689de1cdb65052a1624de4bace99bf6105ad81611306565b6000600186866040516105c1929190611af9565b908152602001604051809103902084846040516105df929190611af9565b908152604051908190036020019020600681015490915060ff166106375760405162461bcd60e51b815260206004820152600f60248201526e10985d18da081b9bdd08199bdd5b99608a1b60448201526064016104b0565b60408051808201909152600481527f536f6c64000000000000000000000000000000000000000000000000000000006020820152600182019061067a9082611c51565b50604080513360601b6bffffffffffffffffffffffff19166020820152815160148183030181526034909101918290527fc4fb1e5337e4507cd279c69228365880200841a1abc7042399852327d48477bb916106e0918991899189918991904290611d82565b60405180910390a1505050505050565b6001600160a01b0381163314610732576040517f6697b23200000000000000000000000000000000000000000000000000000000815260040160405180910390fd5b61073c82826113bd565b505050565b7f7c6181838a71a779e445600d4c6ecbe16bacf2b3c5bda69c29fada66d1b645d161076b81611306565b60006001898960405161077f929190611af9565b9081526020016040518091039020878760405161079d929190611af9565b908152604051908190036020019020600681015490915060ff16156108045760405162461bcd60e51b815260206004820152601460248201527f426174636820616c72656164792065786973747300000000000000000000000060448201526064016104b0565b80610810878983611b91565b5060038101610820858783611b91565b506004810183905560408051808201909152600981527f48617276657374656400000000000000000000000000000000000000000000006020820152600182019061086b9082611c51565b5060068101805460ff191660011790556040517fce1ef3de101fb6f626c2eebfcf5ffca2179e602c2a67084a21546d10a49ed1b7906108b7908b908b908b908b908b908b908b90611dd1565b60405180910390a1505050505050505050565b8151602081840181018051600182529282019482019490942091909352815180830184018051928152908401929093019190912091528054819061090d90611b09565b80601f016020809104026020016040519081016040528092919081815260200182805461093990611b09565b80156109865780601f1061095b57610100808354040283529160200191610986565b820191906000526020600020905b81548152906001019060200180831161096957829003601f168201915b50505050509080600101805461099b90611b09565b80601f01602080910402602001604051908101604052809291908181526020018280546109c790611b09565b8015610a145780601f106109e957610100808354040283529160200191610a14565b820191906000526020600020905b8154815290600101906020018083116109f757829003601f168201915b505050505090806002018054610a2990611b09565b80601f0160208091040260200160405190810160405280929190818152602001828054610a5590611b09565b8015610aa25780601f10610a7757610100808354040283529160200191610aa2565b820191906000526020600020905b815481529060010190602001808311610a8557829003601f168201915b505050505090806003018054610ab790611b09565b80601f0160208091040260200160405190810160405280929190818152602001828054610ae390611b09565b8015610b305780601f10610b0557610100808354040283529160200191610b30565b820191906000526020600020905b815481529060010190602001808311610b1357829003601f168201915b50505050600483015460069093015491929160ff16905086565b60608060608060006060600060018b8b604051610b68929190611af9565b90815260200160405180910390208989604051610b86929190611af9565b908152604051908190036020019020600681015490915060ff16610bde5760405162461bcd60e51b815260206004820152600f60248201526e10985d18da081b9bdd08199bdd5b99608a1b60448201526064016104b0565b80600001816001018260020183600301846004015485600501858054610c0390611b09565b80601f0160208091040260200160405190810160405280929190818152602001828054610c2f90611b09565b8015610c7c5780601f10610c5157610100808354040283529160200191610c7c565b820191906000526020600020905b815481529060010190602001808311610c5f57829003601f168201915b50505050509550848054610c8f90611b09565b80601f0160208091040260200160405190810160405280929190818152602001828054610cbb90611b09565b8015610d085780601f10610cdd57610100808354040283529160200191610d08565b820191906000526020600020905b815481529060010190602001808311610ceb57829003601f168201915b50505050509450838054610d1b90611b09565b80601f0160208091040260200160405190810160405280929190818152602001828054610d4790611b09565b8015610d945780601f10610d6957610100808354040283529160200191610d94565b820191906000526020600020905b815481529060010190602001808311610d7757829003601f168201915b50505050509350828054610da790611b09565b80601f0160208091040260200160405190810160405280929190818152602001828054610dd390611b09565b8015610e205780601f10610df557610100808354040283529160200191610e20565b820191906000526020600020905b815481529060010190602001808311610e0357829003601f168201915b5050505050925080805480602002602001604051908101604052809291908181526020016000905b8282101561103a5783829060005260206000209060040201604051806080016040529081600082018054610e7b90611b09565b80601f0160208091040260200160405190810160405280929190818152602001828054610ea790611b09565b8015610ef45780601f10610ec957610100808354040283529160200191610ef4565b820191906000526020600020905b815481529060010190602001808311610ed757829003601f168201915b50505050508152602001600182018054610f0d90611b09565b80601f0160208091040260200160405190810160405280929190818152602001828054610f3990611b09565b8015610f865780601f10610f5b57610100808354040283529160200191610f86565b820191906000526020600020905b815481529060010190602001808311610f6957829003601f168201915b50505050508152602001600282018054610f9f90611b09565b80601f0160208091040260200160405190810160405280929190818152602001828054610fcb90611b09565b80156110185780601f10610fed57610100808354040283529160200191611018565b820191906000526020600020905b815481529060010190602001808311610ffb57829003601f168201915b5050505050815260200160038201548152505081526020019060010190610e48565b505050509050965096509650965096509650509499939850945094509450565b60008281526020819052604090206001015461107581611306565b61057d83836113bd565b7ffbd454f36a7e1a388bd6fc3ab10d434aa4578f811acbbcf33afb1c697486313c6110a981611306565b600060018a8a6040516110bd929190611af9565b908152602001604051809103902088886040516110db929190611af9565b908152604051908190036020019020600681015490915060ff166111335760405162461bcd60e51b815260206004820152600f60248201526e10985d18da081b9bdd08199bdd5b99608a1b60448201526064016104b0565b604080516080810182523360601b6bffffffffffffffffffffffff191660a08201528151609481830301815260b482018352815281516020601f8901819004810282018101909352878152600584019280830191908a908a9081908401838280828437600092019190915250505090825250604080516020601f89018190048102820181019092528781529181019190889088908190840183828082843760009201829052509385525050426020938401525083546001810185559381522081519192600402019081906112079082611c51565b506020820151600182019061121c9082611c51565b50604082015160028201906112319082611c51565b506060820151816003015550506040518060400160405280600a81526020017f496e205472616e736974000000000000000000000000000000000000000000008152508160010190816112849190611c51565b50604080513360601b6bffffffffffffffffffffffff19166020820152815160148183030181526034909101918290527f3026b7af61136fe8b96b3d7837652a30af437584acc1eb2ab6ad4d0f74692b71916112f2918d918d918d918d91908d908d908d908d904290611e22565b60405180910390a150505050505050505050565b6113108133611440565b50565b6000828152602081815260408083206001600160a01b038516845290915281205460ff166113b5576000838152602081815260408083206001600160a01b03861684529091529020805460ff1916600117905561136d3390565b6001600160a01b0316826001600160a01b0316847f2f8788117e7eff1d82e926ec794901d17c78024a50270940304540a733656f0d60405160405180910390a45060016103fa565b5060006103fa565b6000828152602081815260408083206001600160a01b038516845290915281205460ff16156113b5576000838152602081815260408083206001600160a01b0386168085529252808320805460ff1916905551339286917ff6391f5c32d9c69d2a47ea670b442974b53935d1edc7fd64eb21e047a839171b9190a45060016103fa565b6000828152602081815260408083206001600160a01b038516845290915290205460ff166114ac576040517fe2517d3f0000000000000000000000000000000000000000000000000000000081526001600160a01b0382166004820152602481018390526044016104b0565b5050565b6000602082840312156114c257600080fd5b81357fffffffff00000000000000000000000000000000000000000000000000000000811681146114f257600080fd5b9392505050565b60006020828403121561150b57600080fd5b5035919050565b60008083601f84011261152457600080fd5b50813567ffffffffffffffff81111561153c57600080fd5b60208301915083602082850101111561155457600080fd5b9250929050565b6000806000806000806060878903121561157457600080fd5b863567ffffffffffffffff81111561158b57600080fd5b61159789828a01611512565b909750955050602087013567ffffffffffffffff8111156115b757600080fd5b6115c389828a01611512565b909550935050604087013567ffffffffffffffff8111156115e357600080fd5b6115ef89828a01611512565b979a9699509497509295939492505050565b6000806040838503121561161457600080fd5b8235915060208301356001600160a01b038116811461163257600080fd5b809150509250929050565b6000806000806040858703121561165357600080fd5b843567ffffffffffffffff81111561166a57600080fd5b61167687828801611512565b909550935050602085013567ffffffffffffffff81111561169657600080fd5b6116a287828801611512565b95989497509550505050565b60008060008060008060006080888a0312156116c957600080fd5b873567ffffffffffffffff8111156116e057600080fd5b6116ec8a828b01611512565b909850965050602088013567ffffffffffffffff81111561170c57600080fd5b6117188a828b01611512565b909650945050604088013567ffffffffffffffff81111561173857600080fd5b6117448a828b01611512565b989b979a50959894979596606090950135949350505050565b634e487b7160e01b600052604160045260246000fd5b600082601f83011261178457600080fd5b813567ffffffffffffffff81111561179e5761179e61175d565b604051601f8201601f19908116603f0116810167ffffffffffffffff811182821017156117cd576117cd61175d565b6040528181528382016020018510156117e557600080fd5b816020850160208301376000918101602001919091529392505050565b6000806040838503121561181557600080fd5b823567ffffffffffffffff81111561182c57600080fd5b61183885828601611773565b925050602083013567ffffffffffffffff81111561185557600080fd5b61186185828601611773565b9150509250929050565b6000815180845260005b8181101561189157602081850181015186830182015201611875565b506000602082860101526020601f19601f83011685010191505092915050565b60c0815260006118c460c083018961186b565b82810360208401526118d6818961186b565b905082810360408401526118ea818861186b565b905082810360608401526118fe818761186b565b6080840195909552505090151560a090910152949350505050565b60c08152600061192c60c083018961186b565b828103602084015261193e818961186b565b90508281036040840152611952818861186b565b90508281036060840152611966818761186b565b905084608084015282810360a084015280845180835260208301915060208160051b8401016020870160005b83811015611a1057601f1986840301855281518051608085526119b8608086018261186b565b9050602082015185820360208701526119d1828261186b565b915050604082015185820360408701526119eb828261186b565b6060938401519690930195909552506020958601959093509190910190600101611992565b50909c9b505050505050505050505050565b6000806000806000806000806080898b031215611a3e57600080fd5b883567ffffffffffffffff811115611a5557600080fd5b611a618b828c01611512565b909950975050602089013567ffffffffffffffff811115611a8157600080fd5b611a8d8b828c01611512565b909750955050604089013567ffffffffffffffff811115611aad57600080fd5b611ab98b828c01611512565b909550935050606089013567ffffffffffffffff811115611ad957600080fd5b611ae58b828c01611512565b999c989b5096995094979396929594505050565b8183823760009101908152919050565b600181811c90821680611b1d57607f821691505b602082108103611b3d57634e487b7160e01b600052602260045260246000fd5b50919050565b601f82111561073c57806000526020600020601f840160051c81016020851015611b6a5750805b601f840160051c820191505b81811015611b8a5760008155600101611b76565b5050505050565b67ffffffffffffffff831115611ba957611ba961175d565b611bbd83611bb78354611b09565b83611b43565b6000601f841160018114611bf15760008515611bd95750838201355b600019600387901b1c1916600186901b178355611b8a565b600083815260209020601f19861690835b82811015611c225786850135825560209485019460019092019101611c02565b5086821015611c3f5760001960f88860031b161c19848701351681555b505060018560011b0183555050505050565b815167ffffffffffffffff811115611c6b57611c6b61175d565b611c7f81611c798454611b09565b84611b43565b6020601f821160018114611cb35760008315611c9b5750848201515b600019600385901b1c1916600184901b178455611b8a565b600084815260208120601f198516915b82811015611ce35787850151825560209485019460019092019101611cc3565b5084821015611d015786840151600019600387901b60f8161c191681555b50505050600190811b01905550565b81835281816020850137506000828201602090810191909152601f909101601f19169091010190565b606081526000611d4d60608301888a611d10565b8281036020840152611d60818789611d10565b90508281036040840152611d75818587611d10565b9998505050505050505050565b608081526000611d9660808301888a611d10565b8281036020840152611da9818789611d10565b90508281036040840152611dbd818661186b565b915050826060830152979650505050505050565b608081526000611de560808301898b611d10565b8281036020840152611df881888a611d10565b90508281036040840152611e0d818688611d10565b91505082606083015298975050505050505050565b60c081526000611e3660c083018c8e611d10565b8281036020840152611e49818b8d611d10565b90508281036040840152611e5d818a61186b565b90508281036060840152611e7281888a611d10565b90508281036080840152611e87818688611d10565b9150508260a08301529b9a505050505050505050505056fea2646970667358221220b40762cc3399e70ebf9e5e040c856178a253a7039d0b7836f95df35022650d9c64736f6c634300081c0033",
  "linkReferences": {},
  "deployedLinkReferences": {}
}